:1000000006308A007A2E00004E1D25173033E33665
:1000100020102000421D25173033E3362010200029
:100020000C00C8224C264F00513084008313000876
:10003000031927280630F800F701F70B1D28F80BE5
:100040001C287B30F700F70B2328800B1A280800A8
:1000500058182C2808122D28081683160812831207
:10006000D8183428881235288816831688128312E7
:1000700058193C2808133D280817831608138312C3
:10008000D819442888134528881783168813000038
:1000900083120915831609110330F700F70B4E2858
:1000A000831209118316091183120800D9018316DE
:1000B000081600308312081A0130D90483168816F6
:1000C00000308312881A0130F7000310F70D77080B
:1000D000D9048316081700308312081B0130F7007B
:1000E000F70DF70DFC30F7057708D904831688174C
:1000F00000308312881B0130F700F70DF70DF70D64
:10010000F830F7057708D9045908F8000800831675
:100110000911091089108312091083160910081695
:10012000881608178817831289148316891000000F
:1001300083120915831609110000831256207808CE
:10014000D8000911831609110000831209158316BE
:100150000911AA28AB280000831256207808D7007E
:1001600009118316091108128812081388138312C3
:10017000580EF700F030F70577085704F8007808B4
:10018000D700D71FC52883168F28D508031DCA2876
:100190000910CB2809148316091000008312891056
:1001A0008316891000008312091183160911831226
:1001B000560ED7000F30D7055708D800282056080C
:1001C0000F39D700D800282008002830C4000C3090
:1001D000C5000130C6000630C70009118316091199
:1001E000831209108316091083128910831689104F
:1001F00008128812081388130911091089100F308A
:100200008312D10014200130C3004308033C031CB7
:1002100011290330D80028200530D1001420C30A4A
:1002200005290230D80028200530D1001420C30150
:100230004308033C031C28294430430784008313EC
:100240000008C800D5014808D6008720C30A18292D
:100250008A110A128B2E520B2E2931294030D300DD
:100260003229D30101305102D30753088038D4001A
:10027000D5015408D600872008005008073A031912
:100280004B290B3A03195029063A03195829023A07
:1002900003195E2963290130D100D2002B2168297E
:1002A000D5010130D60087200230D1001420682902
:1002B0000130D1000230D2002B216829D501103045
:1002C000D600872068290130D5005008D600872045
:1002D00008000B08C3008B13831603178C170C142C
:1002E0000000000083120313C31B8B1703170C08B5
:1002F0007F390319BD290313C30003170D08031326
:10030000C40003170F080313C5004308D0003D21A4
:10031000440803178D000313450803178F000313C8
:100320000B08C6008B13831603178C170C140000E0
:10033000000083120313C61B8B1703170C0D0E0D41
:100340007F390319BD290313C30003170D080313D5
:10035000C40003170F080313C5004308D0003D2154
:10036000440803178D000313450803178F008D0AF7
:1003700003198F0A03136929031703130800500890
:1003800003192F2AD800540803192F2AD807031855
:10039000D0297F30D802031C2F2A03192F2AD429F1
:1003A0008130D80703182F2A5808F700F801F901FF
:1003B000FA015108DC00DC175208DB005308DA00B0
:1003C0001830D800D9015A1CFD295708FA07031C18
:1003D000EF29F90A031DEF29F80A0319D91756085E
:1003E000F907031CF629F80A0319D9175508D20092
:1003F000D2175208F8070318D917D90DF80CF90CC1
:10040000FA0CDC0CDB0CDA0C0310D80BE2290130FF
:10041000F70703182F2AF81B142ADC0DFA0DF90D23
:10042000F80DF70303192F2ADC1F252AFA0A031DEA
:10043000252AF90A031D252AF80A031D252AF80C86
:10044000F90CFA0CF70A03192F2A5108D90055089C
:10045000D906D91F2D2AF817332AF813332AF701A2
:10046000F801F901FA01080001304302FC3E0318CB
:10047000562A043E502C40104008831687008312F1
:100480000714562A40114008831687008312071567
:10049000562A401240088316870083120716562AF0
:1004A0004013400883168700831207173230D100AB
:1004B000142001304302FC3E03187B2A043E582CD2
:1004C0004010400883168700831207107B2A4011D2
:1004D000400883168700831207117B2A40124008C8
:1004E00083168700831207127B2A40134008831665
:1004F00087008312071301304302FC3E0318A12A30
:10050000043E602CC0144008831687008312871CA9
:10051000822AA12AC0154008831687008312871DEE
:100520008A2AA12AC0164008831687008312871ED4
:10053000922AA12AC0174008831687008312871FBA
:100540009A2AB53090008E018F018E010000013093
:100550004302FC3E0318CD2A043E682CC014400818
:100560008316870083128718AE2ACD2AC01540084B
:100570008316870083128719B62ACD2AC016400831
:10058000831687008312871ABE2ACD2AC017400817
:10059000831687008312871BC62A9001013043020D
:1005A000F700F70DF70DFC30F7057708303E8400B3
:1005B00083130F08FA000E08F7000F087A02031DD4
:1005C000D92A7708C6007A08C7004708C900460834
:1005D000C8008E30F7004908F8004808F900FA0111
:1005E000F808031DFD2A7908F800F9010830F70220
:1005F000F808031DFD2AF701052B0310F81B042B37
:10060000F90DF80DF703FD2AF8137A08D3007908DD
:10061000D2007808D1007708D000CD30D700CC3098
:10062000D6004C30D5007F30D400BF217708800041
:10063000840A78088000840A79088000840A7A088D
:10064000800001304302F700F70DF70DFC30F7058D
:100650007708203EF800FA010318FA0A7808C40067
:100660007A08C50001304302F700F70DF70DFC30A2
:10067000F7057708303E840083130008F700840AEA
:100680000008F800840A0008F900840A0008FA004B
:10069000FD3084077A08C9007908C8007808C700C7
:1006A0007708C6004908CD004808CC004708CB00B1
:1006B0004608CA00D101D0016830CF008430CE0096
:1006C0004A080319252CD6004E080319252CD602FA
:1006D000031C6F2B7F30D6070318252C752B813018
:1006E000D602031C252C0319252C5608F700F80107
:1006F000F901FA01D5014B08D400D4174C08D300F6
:100700004D08D2001930D6005108D2020318982B98
:100710000130D3020318982BD4020318982BD5026A
:100720000318982BD50AD40AD30A5108D207CA2B2A
:100730005008D3020318B32B0130D4020318B32B93
:10074000D5020318B32BD50AD40A5008D307510891
:10075000D207031CCA2BD30A031DCA2BD40A031DBC
:10076000CA2BD50ACA2B4F088038D4020318C92BCC
:100770000130D5020318C92BD50A4F088038D40799
:100780005008D307031CA72BD40A031DA72BD50A97
:10079000A72B7A14D60BCD2BD82B0310D20DD30D4B
:1007A000D40DD50D0310FA0DF90DF80DD70D842BCE
:1007B000571CE02B0310F80CF90CFA0CD70CE32BA8
:1007C000F7030319252CD71B0C2C0310D20DD30DC6
:1007D000D40DD50D5108D2020318F82B0130D302E5
:1007E0000318F82BD4020318F82BD502031C1B2C7A
:1007F0005008D3020318032C0130D4020318032C31
:10080000D502031C1B2C4F088038D40203180C2C73
:100810000130D502031C1B2CFA0A031D1B2CF90AFC
:10082000031D1B2CF80A031D1B2CF70A0319252C8A
:10083000F80CF90CFA0C4B08D6004F08D606D61F58
:10084000232CF817292CF813292CF701F801F901AA
:10085000FA01440884008313451883177708800041
:10086000840A78088000840A79088000840A7A085B
:10087000800001304302F700F70DF70DFC30F7055B
:100880007708203E840083130008F700840A0008DC
:10089000F800840A0008F900840A0008FA00080039
:1008A0000A108A100A1582073B2A422A492A502A2E
:1008B0000A108A100A158207602A672A6E2A752A8A
:1008C0000A108A100A158207822A8A2A922A9A2AEC
:1008D0000A108A100A158207AE2AB62ABE2AC62A2C
:1008E0008318752C583084008313F701F801F9013F
:1008F000FA01D801D901DA01DB0157085604550481
:1009000054040319B32C2030DC000310D00DD10D9A
:10091000D20DD30DD80DD90DDA0DDB0D57085B02C2
:10092000031D9C2C56085A02031D9C2C5508590285
:10093000031D9C2C54085802031CAD2C5408D802EB
:100940005508031C550FD9025608031C560FDA022E
:100950005708031C570FDB020314F70DF80DF90DB0
:10096000FA0DDC0B852C58088000840A5908800099
:10097000840A5A088000840A5B0880000800040882
:10098000C8004708CA000319DE2C4608D3004508F2
:10099000D2004408D1004308D000D701D60120304E
:1009A000D5008230D400BF217A08C6007908C5007E
:1009B0007808C4007708C300CA0BC52C4608D300CA
:1009C0004508D2004408D1004308D0005008B63C86
:1009D000D000FA015108D400D1170310D10CD20C69
:1009E000D30CFA0CF90CF80CF70CD00BED2CD41F2F
:1009F000042DF709F809F909FA09F70A0319F80AA1
:100A00000319F90A0319FA0A7A08C6007908C50019
:100A10007808C4007708C300C61F1B2DC803C8167A
:100A2000C309C409C509C609C30A0319C40A0319BD
:100A3000C50A0319C60A3B30CF009A30CE00CA302F
:100A4000CD00CC010A30CA0047080319C80A831434
:100A50004330840083134608D3004508D20044087D
:100A6000D1004308D0004F08D7004E08D6004D08EB
:100A7000D5004C08D40070247808F708031D532DC6
:100A8000470A4A020319532D48080319552D0F39F7
:100A90004A0203194D2D0318852DC81B852D481BAF
:100AA000552D2030812D2030C805C81E632DC81259
:100AB0004708031DC8037708C8002D30D0003D212A
:100AC0004808F700C80147084A02031D712D77083E
:100AD000C8002E30D0003D214808F7002030C8055E
:100AE00000303030C81E812DC8124708031DC803CE
:100AF0007708C8002D30D0003D214808F700C80114
:100B00003030F7077708D0003D2183104F08D3001D
:100B10004E08D2004D08D1004C08D000D701D601B4
:100B2000D5010A30D40070247A08CF007908CE00AD
:100B30007808CD007708CC00CA0B272D08000B08D9
:100B4000C4008B13831603178C170C1400000000CD
:100B500083120313C41B8B170318D62D03170C081D
:100B60007F390313C40003170D080313C5000317CF
:100B70000F080313C6004408D0003D2145080317A1
:100B80008D000313460803178F0003130B08C700DB
:100B90008B13831603178C170C14000000008312AC
:100BA0000313C71B8B17C30BD62DF52D03170C0D85
:100BB0000E0D7F390313C40003170D080313C5007E
:100BC00003170F080313C6004408D0003D21450851
:100BD00003178D000313460803178F008D0A0319AE
:100BE0008F0A03100313C30B9F2D08000130D1009F
:100BF000D2002B214430D0003D213A30D0003D219D
:100C0000893084002308C6002208C5002108C400DA
:100C10002008C300C701BF246330D0003D216D30E0
:100C2000D0003D212030D0003D210130D1000230E4
:100C3000D2002B215430D0003D213A30D0003D214C
:100C4000893084002708C6002608C5002508C4008E
:100C50002408C300C701BF246330D0003D216D309C
:100C6000D0003D212030D0003D210930D10001309D
:100C7000D2002B214E30D0003D213A30D0003D2112
:100C8000893084002B08C6002A08C5002908C40042
:100C90002808C300C701BF24073003178D000030A8
:100CA0008F00031005300313C3009F250930D100C6
:100CB0000230D2002B214230D0003D213A30D0000A
:100CC0003D21893084002F08C6002E08C5002D085C
:100CD000C4002C08C300C701BF240D3003178D00CA
:100CE00000308F00031005300313C3009F258A11C5
:100CF0000A12B12E03081F398300FF30C000C20161
:100D0000C10183161F149F141F159F1107309C00EB
:100D100083138312E528103003178D0000308F00F5
:100D2000031369210130D100D2002B2111300317A8
:100D30008D0000308F00031369210430C300FA30A6
:100D4000D1001420C30B9F2E0130C3003422023087
:100D5000C30034220330C30034220430C3003422E1
:0C0D6000F62D6430D1001420A42E630096
:02400E00723FFF
:00000001FF
;PIC16F877A
;CRC=CD4D  CREATED="19-Feb-25 14:16"
