:1000000007308A00752F0000441D25173033E33672
:1000100020102000541D25173033E3362010200017
:100020004E1D25173033E33620102000421D2517C2
:100030003033E33620102000D33274105434F232BF
:1000400073346F3664005434F23273346F36641D87
:10005000A01266000C000C00C8224C264F0058303D
:10006000840083130008031942280630F800F701C2
:10007000F70B3828F80B37287B30F700F70B3E28B2
:10008000800B352808005F184728081248280816F2
:10009000831608128312DF184F28881250288816FA
:1000A0008316881283125F195728081358280817D7
:1000B000831608138312DF195F28881360288817B6
:1000C0008316881300008312091583160911033063
:1000D000F700F70B6928831209118316091183129F
:1000E0000800E0018316081600308312081A013058
:1000F000E0048316881600308312881A0130F70056
:100100000310F70D7708E0048316081700308312F8
:10011000081B0130F700F70DF70DFC30F7057708E5
:10012000E0048316881700308312881B0130F70023
:10013000F70DF70DF70DF830F7057708E0046008C4
:10014000F80008008316091109108910831209109C
:100150008316091008168816081788178312891441
:1001600083168910000083120915831609110000F7
:10017000831271207808DF0009118316091100002D
:100180008312091583160911C528C6280000831299
:1001900071207808DE0009118316091108128812EF
:1001A0000813881383125F0EF700F030F705770805
:1001B0005E04F8007808DE00DE1FE0288316AA2817
:1001C000DC08031DE5280910E62809148316091028
:1001D0000000831289108316891000008312091110
:1001E0008316091183125D0EDE000F30DE055E08F6
:1001F000DF0043205D080F39DE00DF0043200800E8
:100200002830CB000C30CC000130CD000630CE00C1
:10021000091183160911831209108316091083121C
:10022000891083168910081288120813881309117F
:10023000091089100F308312D8002F200130CA0016
:100240004A08033C031C2C290330DF0043200530FF
:10025000D8002F20CA0A20290230DF0043200530B1
:10026000D8002F20CA014A08033C031C43294B3005
:100270004A07840083130008CF00DC014F08DD002B
:10028000A220CA0A33298A110A128D2F590B492933
:100290004C294030DA004D29DA0101305802DA07E2
:1002A0005A088038DB00DC015B08DD00A220080072
:1002B0005708073A031966290B3A03196B29063ABE
:1002C00003197329023A031979297E290130D800CC
:1002D000D90046218329DC010130DD00A220023053
:1002E000D8002F2083290130D8000230D9004621C0
:1002F0008329DC011030DD00A22083290130DC00DD
:100300005708DD00A22008000B08CA008B138316D3
:1003100003178C170C140000000083120313CA1B70
:100320008B1703170C087F390319D8290313CA0048
:1003300003170D080313CB0003170F080313CC009A
:100340004A08D70058214B0803178D0003134C08A7
:1003500003178F0003130B08CD008B1383160317AD
:100360008C170C140000000083120313CD1B8B1795
:1003700003170C0D0E0D7F390319D8290313CA007A
:1003800003170D080313CB0003170F080313CC004A
:100390004A08D70058214B0803178D0003134C0857
:1003A00003178F008D0A03198F0A0313842903177B
:1003B000031308008316061483120618ED2983160A
:1003C00006148312061CDF290130A4062A30031705
:1003D0008D0000308F00031384218A110A12A72F89
:1003E00057080319602ADF005B080319602ADF073A
:1003F0000318012A7F30DF02031C602A0319602AD8
:10040000052A8130DF070318602A5F08F700F8012A
:10041000F901FA015808E300E3175908E2005A0805
:10042000E1001830DF00E001611C2E2A5E08FA07A7
:10043000031C202AF90A031D202AF80A0319E017D1
:100440005D08F907031C272AF80A0319E0175C085E
:10045000D900D9175908F8070318E017E00DF80C70
:10046000F90CFA0CE30CE20CE10C0310DF0B132A7D
:100470000130F7070318602AF81B452AE30DFA0D2F
:10048000F90DF80DF7030319602AE31F562AFA0A3B
:10049000031D562AF90A031D562AF80A031D562A77
:1004A000F80CF90CFA0CF70A0319602A5808E00056
:1004B0005C08E006E01F5E2AF817642AF813642A35
:1004C000F701F801F901FA01080001304A02FC3E87
:1004D0000318872A043E812C45104508831687009F
:1004E00083120714872A4511450883168700831253
:1004F0000715872A451245088316870083120716B9
:10050000872A451345088316870083120717323060
:10051000D8002F2001304A02FC3E0318AC2A043ECA
:10052000892C451045088316870083120710AC2AD2
:10053000451145088316870083120711AC2A45121E
:1005400045088316870083120712AC2A4513450815
:10055000831687008312071301304A02FC3E0318FA
:10056000D22A043E912CC5144508831687008312B5
:10057000871CB32AD22AC515450883168700831223
:10058000871DBB2AD22AC516450883168700831209
:10059000871EC32AD22AC5174508831687008312EF
:1005A000871FCB2AB53090008E018F018E0100008D
:1005B00001304A02FC3E0318FE2A043E992CC51461
:1005C00045088316870083128718DF2AFE2AC5157F
:1005D00045088316870083128719E72AFE2AC51665
:1005E0004508831687008312871AEF2AFE2AC5174B
:1005F0004508831687008312871BF72A9001013074
:100600004A02F700F70DF70DFC30F7057708353E85
:10061000840083130F08FA000E08F7000F087A020F
:10062000031D0A2B7708CD007A08CE004E08D000B3
:100630004D08CF008E30F7005008F8004F08F90041
:10064000FA01F808031D2E2B7908F800F90108308B
:10065000F702F808031D2E2BF701362B0310F81BA9
:10066000352BF90DF80DF7032E2BF8137A08DA0065
:100670007908D9007808D8007708D700CD30DE0097
:10068000CC30DD004C30DC007F30DB00F02177081F
:100690008000840A78088000840A79088000840A2F
:1006A0007A08800001304A02F700F70DF70DFC30A0
:1006B000F7057708253EF800FA010318FA0A7808CA
:1006C000CB007A08CC0001304A02F700F70DF70D95
:1006D000FC30F7057708353E840083130008F700E7
:1006E000840A0008F800840A0008F900840A000857
:1006F000FA00FD3084077A08D0007908CF00780826
:10070000CE007708CD005008D4004F08D3004E0823
:10071000D2004D08D100D801D7016830D60084300E
:10072000D50051080319562CDD0055080319562C25
:10073000DD02031CA02B7F30DD070318562CA62BEF
:100740008130DD02031C562C0319562C5D08F7007E
:10075000F801F901FA01DC015208DB00DB1753084C
:10076000DA005408D9001930DD005808D9020318FE
:10077000C92B0130DA020318C92BDB020318C92B7D
:10078000DC020318C92BDC0ADB0ADA0A5808D9078D
:10079000FB2B5708DA020318E42B0130DB020318A5
:1007A000E42BDC020318E42BDC0ADB0A5708DA0727
:1007B0005808D907031CFB2BDA0A031DFB2BDB0AA5
:1007C000031DFB2BDC0AFB2B56088038DB020318C9
:1007D000FA2B0130DC020318FA2BDC0A56088038A9
:1007E000DB075708DA07031CD82BDB0A031DD82BBD
:1007F000DC0AD82B7A14DD0BFE2B092C0310D90D43
:10080000DA0DDB0DDC0D0310FA0DF90DF80DDE0D20
:10081000B52B5E1C112C0310F80CF90CFA0CDE0C35
:10082000142CF7030319562CDE1B3D2C0310D90D95
:10083000DA0DDB0DDC0D5808D9020318292C013024
:10084000DA020318292CDB020318292CDC02031C12
:100850004C2C5708DA020318342C0130DB02031841
:10086000342CDC02031C4C2C56088038DB020318A5
:100870003D2C0130DC02031C4C2CFA0A031D4C2CCD
:10088000F90A031D4C2CF80A031D4C2CF70A031916
:10089000562CF80CF90CFA0C5208DD005608DD064F
:1008A000DD1F542CF8175A2CF8135A2CF701F801B5
:1008B000F901FA014B08840083134C188317770859
:1008C0008000840A78088000840A79088000840AFD
:1008D0007A08800001304A02F700F70DF70DFC306E
:1008E000F7057708253E840083130008F700840A83
:1008F0000008F800840A0008F900840A0008FA00D9
:1009000008000A108A100A1582076C2A732A7A2AAC
:10091000812A0A108A100A158207912A982A9F2A8A
:10092000A62A0A108A100A158207B32ABB2AC32AEC
:10093000CB2A0A108A100A158207DF2AE72AEF2A33
:10094000F72A4F08D6005308D606D61FAC2C031141
:100950000310CF1B0314DF2C4F08D6005208D7001A
:100960004E08D7020319BA2CD61FDF2C0308013A10
:100970008300DF2C5308D7004F08D7020319C62C79
:10098000D61FDF2C0308013A8300DF2C5408D70060
:100990005008D7020319D22CD61FDF2C0308013AC6
:1009A0008300DF2C5508D7005108D7020319DE2C2D
:1009B000D61FDF2C0308013A8300DF2C0310080048
:1009C0008318E52C5F3084008313F701F801F901E7
:1009D000FA01DF01E001E101E2015E085D045C046F
:1009E0005B040319232D2030E3000310D70DD80D2D
:1009F000D90DDA0DDF0DE00DE10DE20D5E086202AA
:100A0000031D0C2D5D086102031D0C2D5C086002A6
:100A1000031D0C2D5B085F02031C1D2D5B08DF020C
:100A20005C08031C5C0FE0025D08031C5D0FE10223
:100A30005E08031C5E0FE2020314F70DF80DF90DBA
:100A4000FA0DE30BF52C5F088000840A6008800033
:100A5000840A61088000840A620880000800040893
:100A6000CF004E08D10003194E2D4D08DA004C0876
:100A7000D9004B08D8004A08D700DE01DD0120303C
:100A8000DC008230DB00F0217A08CD007908CC0050
:100A90007808CB007708CA00D10B352D4D08DA0055
:100AA0004C08D9004B08D8004A08D7005708B63C74
:100AB000D700FA015808DB00D8170310D80CD90C5E
:100AC000DA0CFA0CF90CF80CF70CD70B5D2DDB1FC8
:100AD000742DF709F809F909FA09F70A0319F80A50
:100AE0000319F90A0319FA0A7A08CD007908CC002B
:100AF0007808CB007708CA00CD1F8B2DCF03CF1607
:100B0000CA09CB09CC09CD09CA0A0319CB0A0319B2
:100B1000CC0A0319CD0A3B30D6009A30D500CA3032
:100B2000D400D3010A30D1004E080319CF0A831430
:100B30004A30840083134D08DA004C08D9004B0872
:100B4000D8004A08D7005608DE005508DD005408D2
:100B5000DC005308DB00E0247808F708031DC32DF0
:100B60004E0A51020319C32D4F080319C52D0F3921
:100B700051020319BD2D0318F52DCF1BF52D4F1B69
:100B8000C52D2030F12D2030CF05CF1ED32DCF1213
:100B90004E08031DCF037708CF002D30D700582112
:100BA0004F08F700CF014E085102031DE12D7708D1
:100BB000CF002E30D70058214F08F7002030CF0546
:100BC00000303030CF1EF12DCF124E08031DCF0361
:100BD0007708CF002D30D70058214F08F700CF01FC
:100BE0003030F7077708D700582183105608DA000D
:100BF0005508D9005408D8005308D700DE01DD019C
:100C0000DC010A30DB00E0247A08D6007908D50040
:100C10007808D4007708D300D10B972D08000B0873
:100C2000CB008B13831603178C170C1400000000E5
:100C300083120313CB1B8B170318462E03170C08C4
:100C40007F390313CB0003170D080313CC000317E0
:100C50000F080313CD004B08D70058214C08031789
:100C60008D0003134D0803178F0003130B08CE00EC
:100C70008B13831603178C170C14000000008312CB
:100C80000313CE1B8B17CA0B462E652E03170C0DB4
:100C90000E0D7F390313CB0003170D080313CC008F
:100CA00003170F080313CD004B08D70058214C0839
:100CB00003178D0003134D0803178F008D0A0319C6
:100CC0008F0A03100313CA0B0F2E08000130D8003F
:100CD000D90046214430D70058213A30D700582156
:100CE000893084002808CD002708CC002608CB00D6
:100CF0002508CA00CE012F25073003178D000030CC
:100D00008F00031005300313CA000F260130D800EE
:100D10000230D90046215430D70058213A30D7004C
:100D20005821893084002C08CD002B08CC002A08DB
:100D3000CB002908CA00CE012F250D3003178D00E6
:100D400000308F00031005300313CA000F2609304E
:100D5000D8000130D90046214E30D70058213A3012
:100D6000D7005821893084003008CD002F08CC00EE
:100D70002E08CB002D08CA00CE012F2513300317F3
:100D80008D0000308F00031005300313CA000F26BA
:100D90000930D8000230D90046214230D70058210E
:100DA0003A30D7005821893084003408CD00330808
:100DB000CC003208CB003108CA00CE012F251930F3
:100DC00003178D0000308F00031005300313CA0095
:100DD0000F268A110A12F22F0330D8000130D900F1
:100DE00046211C3003178D0000308F00031384212F
:100DF0000130D8000230D9004621233003178D007E
:100E000000308F0003100B300313CA000F26893007
:100E100084002308CD002208CC002108CB00200844
:100E2000CA000230CE002F258A110A12F42F831631
:100E300006178312061B3B2F831606178312061F05
:100E40001C2F83102308CD002208CC002108CB00E2
:100E50002008CA00D101D0012030CF008230CE005E
:100E60008A1500208A117A08A3007908A200780860
:100E7000A1007708A000831686178312861B722FA5
:100E8000831686178312861F402F83142308CD00F4
:100E90002208CC002108CB002008CA00D101D001D3
:100EA0002030CF008230CE008A1500208A117A08C7
:100EB000A3007908A2007808A1007708A000230801
:100EC000D1002208D0002108CF002008CE00D50193
:100ED000D401D301D201A124031C722FA301A201CA
:100EE000A101A0018A110A12F52F03081F398300FE
:100EF000A301A2014830A1008430A0002410FF30DB
:100F0000C500C701C60183161F149F141F159F112A
:100F100007309C008313831200292B3003178D00A8
:100F200000308F00031384210130D800D9004621FE
:100F30002C3003178D0000308F0003138421043000
:100F4000CA00FA30D8002F20CA0BA12FDA290130AD
:100F5000CA0065220230CA0065220330CA00652239
:100F60000430CA0065224810C9014908033C031C2B
:100F7000E42F490DF700F70DFC30F7057708253E03
:100F8000840083130008CA00840A0008CB00840A86
:100F90000008CC00840A0008CD002308D1002208F4
:100FA000D0002108CF002008CE004D08D5004C0805
:100FB000D4004B08D3004A08D200A124031CE22F1E
:100FC0004814E42FC90AB52F481CEB2F83160811CB
:100FD00083120815EF2F83160811831208112418A5
:100FE000F32F662EF52FEC2E172F6430D8002F200C
:040FF000A62F6300C5
:1010000080308318CF06D401D5014B08D3004F0898
:10101000D3064A080319F128D200F7004E08031935
:10102000FA28D202031996280318172854284F08C3
:10103000D800D8175008D7005108D600D5010310A2
:10104000D80CD70CD60CD50CD20B1E28D31F2B28AE
:1010500054140E295410521054164D30840083132A
:1010600024295412D31B3E28521C4928D80CD70CD3
:10107000D60CD50CF70A031909294928D81B4C2886
:101080000310D50DD60DD70DD80DF7030319092977
:101090003E285417B62854134B08D300D31F5228A8
:1010A000D8170229D81302294E08D200F7004A089F
:1010B000D2024B08D800D8174C08D7004D08D600EC
:1010C000D5010310D80CD70CD60CD50CD20B602848
:1010D000D31F6D28D4140E29D4105210D4165130B9
:1010E000840083132429D412D31B8028521C8B28FC
:1010F000D80CD70CD60CD50CF70A031909298B2864
:10110000D81B8E280310D50DD60DD70DD80DF7039B
:10111000031909298028D417B628D4134F08D300FF
:10112000D31F9428D8170229D81302294F08D800B2
:10113000D8175008D7005108D600D31FA328D813BA
:1011400054150E295411D50152104D3084008313CB
:101150002429D31BCC284B08D300521CB628D80C0A
:10116000D70CD60CD50CF70A03190929D51FC728A7
:10117000D60A031DC728D70A031DC728D80A031D8E
:10118000C728D80CD70CD60CF70A03190929541B09
:101190004B28D41B8D28EB288030D806D81FD428A4
:1011A0000E294F08D300E1284B08D300D808031DAF
:1011B000E128D708031DE128D608031DE128F7011F
:1011C0000229D81BEB280310D50DD60DD70DD80D4D
:1011D000F70BE1280929D31FEF28D8170229D813C4
:1011E00002294E08F7004F08D8005008D7005108D0
:1011F000D60002294A08F7004B08D8004C08D7004F
:101200004D08D6005808F8005708F9005608FA00AB
:101210004329F701F801F901FA014329D501D6095B
:10122000D709D809D509D50A031D1D29D60A031DDA
:101230001D29D70A031D1D29D80A54182A28D41895
:101240006C285419A228D1280008D607031C2E297F
:10125000D70A031D2E29D80A031952148403000843
:10126000D707031C3629D80A03195214840300082F
:10127000801B3B29803AD80703185214541A31288E
:08128000D41A7328A928080004
:02400E00723FFF
:00000001FF
;PIC16F877A
;CRC=97AA  CREATED="19-Feb-25 16:00"
